:100000000110070011000000602F0000FF00000039
:1000100002143B121844122DB322220227F075AAB3
:100020003B75BA0C43BAA043B92053B9BFE4F5B34A
:1000300075B24E75B12075BBFF75A950F5AB75ACA7
:100040000175ADC075AEC0227F0622022468000291
:10005000010102030301040305060601070108026A
:1000600009030A030B010C0A0D01FF021C82BB01EC
:100070000689828A83E0225002E722BBFE02E32245
:1000800089828A83E49322EF8DF0A4A8F0CF8CF0CC
:10009000A428CE8DF0A42EFE22BC000BBE0029EFBA
:1000A0008DF084FFADF022E4CCF875F008EF2FFF5F
:1000B000EE33FEEC33FCEE9DEC984005FCEE9DFE2D
:1000C0000FD5F0E9E4CEFD22EDF8F5F0EE8420D274
:1000D0001CFEADF075F008EF2FFFED33FD400798E3
:1000E0005006D5F0F222C398FD0FD5F0EA22C5F0F4
:1000F000F8A3E028F0C5F0F8E582158270021583B8
:10010000E038F022EF2BFFEE3AFEED39FDEC38FC43
:1001100022C3EF9BFFEE9AFEED99FDEC98FC22E8DE
:100120008FF0A4CC8BF0A42CFCE98EF0A42CFC8ADC
:10013000F0EDA42CFCEA8EF0A4CDA8F08BF0A42D59
:10014000CC3825F0FDE98FF0A42CCD35F0FCEB8EFA
:10015000F0A4FEA9F0EB8FF0A4CFC5F02ECD39FEB0
:10016000E43CFCEAA42DCE35F0FDE43CFC2275F025
:1001700008758200EF2FFFEE33FECD33CDCC33CCAC
:10018000C58233C5829BED9AEC99E58298400CF5C7
:1001900082EE9BFEED9AFDEC99FC0FD5F0D6E4CEF5
:1001A000FBE4CDFAE4CCF9A88222B800C1B9005929
:1001B000BA002DEC8BF084CFCECDFCE5F0CBF978F6
:1001C00018EF2FFFEE33FEED33FDEC33FCEB33FB8A
:1001D00010D703994004EB99FB0FD8E5E4F9FA2214
:1001E0007818EF2FFFEE33FEED33FDEC33FCC9330F
:1001F000C910D7059BE99A4007EC9BFCE99AF90FD7
:10020000D8E0E4C9FAE4CCFB2275F010EF2FFFEE42
:1002100033FEED33FDCC33CCC833C810D7079BEC8D
:100220009AE899400AED9BFDEC9AFCE899F80FD505
:10023000F0DAE4CDFBE4CCFAE4C8F922EB9FF5F068
:10024000EA9E42F0E99D42F0E89C45F022E8600F0A
:10025000ECC313FCED13FDEE13FEEF13FFD8F122F8
:10026000E8600FEFC333FFEE33FEED33FDEC33FCFC
:10027000D8F122E6FC08E6FD08E6FE08E6FF22E0EB
:10028000FCA3E0FDA3E0FEA3E0FF22E2FC08E2FD08
:1002900008E2FE08E2FF22E0F8A3E0F9A3E0FAA3F7
:1002A000E0FB22E2FB08E2F908E2FA08E2CBF822DE
:1002B000ECF0A3EDF0A3EEF0A3EFF022ECF208EDEA
:1002C000F208EEF208EFF222A8828583F0D083D004
:1002D000821202CF1202CF1202CF1202CFE473E4D5
:1002E00093A3C583C5F0C583C8C582C8F0A3C583E1
:1002F000C5F0C583C8C582C822D083D082E493F2FA
:1003000008740193F208740293F208740393F27470
:100310000473A42582F582E5F03583F58322FAE69D
:10032000FB0808E6F925F0F618E6CA3AF622E49347
:10033000FB740193FA740293F922D083D082F8E41B
:10034000937012740193700DA3A393F8740193F545
:10035000828883E4737402936860EFA3A3A380DFB1
:100360008A838982E473900192EEF0A3EFF0E49027
:100370000195F0A3F0A3F09000FFE0FFA3E090014F
:1003800096CFF0A3EFF0E4900194F0900194E0FB9D
:10039000C3940240030204929001ACE070169000F6
:1003A000E6E0B4030FD39000F1E094009000F0E099
:1003B00094004020900194E0FF25E02490F8E4F2BE
:1003C00008F2EF25E025E02478F81202E9000000A9
:1003D00000020489EB25E02491F9E3700219E3702F
:1003E0001C900194E0FF25E02400F8E2FC08E2FD07
:1003F000EF25E02488F8ECF208EDF2805E9001949D
:10040000E0FD25E02488F8E2FE08E2FFED25E02487
:1004100000F8E2FC08E2FD122DD1C3900197E09FA5
:10042000900196E09E5034900194E0FF25E0240076
:10043000F8E2FC08E2FDEF25E02488F8ECF208ED94
:10044000F2E0FF25E02490F8E4F208F2EF25E02541
:10045000E02478F81202E900000000900194E0FF27
:1004600025E02400F8E2FC08E2FDEF25E025E02489
:1004700078F8C000120293AE04AF05E4FCFD120050
:10048000F4D0001202AC900194E025E02490F8082A
:10049000E22401F218E23400F2900194E004F00248
:1004A000037BE4900194F0900194E0FFC394025028
:1004B00024EF25E02491F9900192E0FEA3E0FFC330
:1004C000E39F19E39E4006900195E004F0900194AB
:1004D000E004F080D2900195E06402600302059C84
:1004E00074FF900101F0A3F0E4A3F0A3F090019455
:1004F000F0900194E0FFC39402400302059CEF25B5
:10050000E02490F8E2FE08E2FF4E700302059CE44E
:10051000FCFDC004C005C006C007E025E025E024BE
:1005200078F812027BD003D002D001D00012019AD9
:10053000900198EEF0A3EFF0D3900102E09F9001BC
:1005400001E09E400F900198E0FFA3E0900101CFF1
:10055000F0A3EFF0900103E0FEA3E0FF900198E02C
:10056000FCA3E0FDD39FEC9E4008900103ECF0A3B8
:10057000EDF0900198E0F8A3E0FF900194E0FD25F4
:10058000E02418C8F208EFF2ED25E02490F8E4F238
:1005900008F2ED25E025E02478F81202E9000000D9
:1005A00000C218900194E004F00204E122122CF53C
:1005B000E4FD7F01122642900198E5BAF053BA0F8C
:1005C00043BA10E4900192F0900192E0FFC39402CC
:1005D000501DEF25E025E02422F582E43401F58367
:1005E0001202B800000000900192E004F080D9905F
:1005F000012A1202B8000000009001927405F07503
:10060000ABFF122C66E4900193F0900193E0FFC3DE
:1006100094025052EF25E025E02422F582E43401D3
:10062000F583C083C082120287C000C001C002C02F
:1006300003900193E02468F8E675F003A424EBF539
:1006400082E4342DF58312031E120350D003D0022E
:10065000D001D0001200F4D082D0831202A0900109
:1006600093E004F080A490012A120287C000C00128
:10067000C002C003786AE675F003A424EBF582E4B7
:10068000342DF58312031E120350D003D002D00183
:10069000D0001200F490012A1202A0E4F5AB122C53
:1006A00066E4900193F0900193E0FFC39402505AE6
:1006B000EF25E025E02422F582E43401F583C083B0
:1006C000C08212026FC004C005C006C0079001932B
:1006D000E02468F8E675F003A424EBF582E4342DF9
:1006E000F58312031E120350A804A905AA06AB073E
:1006F000D007D006D005D004120101D082D08312D9
:1007000002A0900193E004F0809C90012A12026FF5
:10071000C004C005C006C007786AE675F003A424CB
:10072000EBF582E4342DF58312031E120350A80466
:10073000A905AA06AB07D007D006D005D004120140
:100740000190012A1202A0900192E014F0E06003EF
:100750000205EFE4900193F0900193E0FBC3940253
:10076000504DA31202B80000138890019412026F3A
:1007700078071202509001941202A0900194120284
:100780006FEB25E025E02422F582E43401F58312A5
:10079000028712019A9001941202A0900194120211
:1007A0006F900193E0242EF8A607E004F080A99052
:1007B00001941202B80000138890019412026F781D
:1007C000071202509001941202A090019412026F3D
:1007D00090012A12028712019A9001941202A090AD
:1007E000019412026F7830A607900198E0F5BA22C2
:1007F000E4900193F0122CF5E4FD7F01122642E40F
:10080000900192F0900192E0FFC394025017EF25FF
:10081000E025E02478F81202E9000000009001923F
:10082000E004F080DF122C66E4900192F0900192D7
:10083000E0FFC394025050EF25E025E02478F8C093
:100840000012027BC004C005C006C007900192E000
:100850002468F8E675F003A424EBF582E4342DF562
:100860008312031E120350A804A905AA06AB07D0E1
:1008700007D006D005D0041200F4D0001202AC90CC
:100880000192E004F080A6900193E004F0E0C394AC
:10089000054092E4900192F0900193E0FFE4FCFDAA
:1008A000FEC004C005C006C007900192E025E02507
:1008B000E02478F812027BD003D002D001D00012DD
:1008C000019A9001941202A0900194120287C00034
:1008D000900192E0242EF8E6FFE4FCFDFED0001229
:1008E000010F9001941202A090019412026F7807F8
:1008F00012023D9001941202A0E47F207E4EFDFC86
:10090000900194120287D312022C403A9001941263
:10091000026FEF24E0FFEE34B1FEED34FFFDEC3466
:10092000FFFC900192E0FB25E025E02412F582E433
:100930003401F5831202A0EB25E02400F8744EF296
:10094000087420F2802A900192E0FB25E025E02443
:1009500012F582E43401F5831202B8000000009021
:10096000019412026FEB25E02400F8EEF208EFF29A
:10097000900192E0FB25E025E02478F81202E900DE
:10098000000000EB25E02490F8E4F208F2900192D8
:10099000E0C394025031E0FF25E02400F8E2FC08B7
:1009A000E2FDEF25E02418F8ECF208EDF2E0FF2577
:1009B000E02420F8E4F208F2EF25E025E02428F80E
:1009C0001202E900000000900192E004F0E06402ED
:1009D000600302088822E4900192F0A3F0A3F0FCE7
:1009E000A3F020CA03020B937872E67003020B9304
:1009F000E4900192F0900192E0FE2472F8E6FD741A
:100A0000A22EF582E43401F583EDF0E4F690019234
:100A1000E004F0E0B40ADE9001A2E0FE54F0FCEE47
:100A2000540F900195F0AF04EF12032A0A38500AD0
:100A300048600A58700A62800AD6900AF3A00B1028
:100A4000B00B90C000000B93782BE64401F6200118
:100A500003020B9312272022782BE654FEF6200186
:100A600003020B9312272022E4FF122E44782DA6B6
:100A700007229001A3E07F00FE900193F0A3EFF026
:100A80009001A4E0FDEEEDFF900193EEF0A3EFF0F6
:100A9000D3940AEE94004003020B93900195E0FF7B
:100AA000B40F2DE4900192F0900192E0FEC3940403
:100AB0004003020B93A3E0FCA3E0FDEE75F008A455
:100AC0002438F8A60408A605900192E004F080D826
:100AD000900193E0FCA3E0FDEF75F008A42438F842
:100AE000A60408A60522900195E0FF7008782BE681
:100AF00054FDF6800AEFB40106782BE64402F67541
:100B00001D0222900195E0FF7008782BE654FBF659
:100B1000800AEFB40106782BE64404F6751D022224
:100B2000900195E0FF703A782BE654DFF6E49001EF
:100B300092F0900192E0FE25E0243AF582E4342917
:100B4000F583E493FC740193FDEE75F008A424385A
:100B5000F8A60408A605900192E004F0E0B402D2E1
:100B600022EF6401703D782BE64420F6E490019278
:100B7000F0900192E0FF25E0246AF582E43429F543
:100B800083E493FC740193FDEF75F008A42438F816
:100B9000A60408A605900192E004F0E0B402D22277
:100BA00012272022E4900197F0C390009DE0940565
:100BB00090009CE09400503790009812026F9001D2
:100BC0003E1202871200F49000981202A09000C01A
:100BD00012026F90013A1202871200F49000C012C4
:100BE00002A090009CE475F0011200DE7F062290C6
:100BF000009812026FEC4D4E4F604A90011E120297
:100C00006F900098120287C312022C50037F0222B9
:100C100090009812026F9000A21202A09000C012E1
:100C2000026F9000C41202A09000981202B8000057
:100C300000009000C01202B800000000E490009C88
:100C4000F0A3F08009E47826F208F27F02229000F7
:100C5000C412026F9001931202A090019312026FCE
:100C6000E47B1EFAF9F812010F9001931202A09092
:100C7000019312026FE47B0AFAF9F812019A9001CB
:100C8000931202A090019312026F9000C91202A069
:100C90009000DDE0703A04F09000C912026FEF247A
:100CA000E0FFEE34B1FEED34FFFDEC34FFFC9001CB
:100CB0001A1202A09000A212026FEF24E0FFEE349D
:100CC000B1FEED34FFFDEC34FFFC90011E1202A0DA
:100CD00090011A1202879000C912026F120101904E
:100CE00001931202A090019312026FE490019CF014
:100CF000121BAE780312023D7804EEF208EFF29078
:100D0000011E1202879000A212026F1201019001CF
:100D1000931202A090019312026FE490019CF012D2
:100D20001A06780312023D90009E1202A090009EC7
:100D300012026FEF2420FFEE344EFE7804E2FC082E
:100D4000E2FDC3EF9DFFEE9CFEE4FCFD90019CF0F4
:100D5000121ADA780312023D9000A61202A0900047
:100D6000A612026F7806EEF208EFF27F06229001DB
:100D7000927407F0A3F0A31202B800000000122C36
:100D8000F5E4FD7F01122642900192E0FF6020749D
:100D9000017E00A807088005C333CE33CED8F9FF03
:100DA000ADACE4EF5D7008900192E014F080D99052
:100DB0000193E0FF602074017E00A807088005C34E
:100DC00033CE33CED8F9FFADAEE4EF5D70089001BD
:100DD00093E014F080D9900192E0FF7401A8070815
:100DE0008002C333D8FCF5AC900193E0FF7401A8F6
:100DF00007088002C333D8FCFFF5AD8FAE53AACFEE
:100E000090019CE5BAF053BA0F43BA10122C66E475
:100E1000900192F0900192E0FFC3940250447468F4
:100E20002FF8E675F003A424EBF582E4342DF58366
:100E300012031E1203509001981202A09001981202
:100E4000026F900194120287C312022C500C900181
:100E50009812026F9001941202A0900192E004F0A7
:100E600080B2786AE675F003A424EBF582E4342DB1
:100E7000F58312031E1203509001981202A09001F4
:100E80009812026F900194120287C312022C500C28
:100E900090019812026F9001941202A09001941296
:100EA0000287C00090019412026F780412023DD0B4
:100EB000001200F49001941202A090019412026FAB
:100EC0009001081202A090019412026F7810120291
:100ED0003D8FB390019412026F780812023D8FB2D9
:100EE00090019412026F8FB143AA3090019CE0F5FB
:100EF000BA75AC0175ADC075AEC022E4FD301426E4
:100F0000ED25E0244AF582E43429F583E493FE7468
:100F10000193FFED25E02493F582E43401F583EE9F
:100F2000F0A3EFF0804D301526ED25E0246AF58220
:100F3000E43429F583E493FE740193FFED25E02466
:100F400093F582E43401F583EEF0A3EFF08024ED15
:100F500025E0243AF582E43429F583E493FE740114
:100F600093FFED25E02493F582E43401F583EEF060
:100F7000A3EFF00DED64027084E4FDED25E024485C
:100F8000F8E2FE08E2FFED25E02439F9D3E39F19EA
:100F9000E39E4016ED25E02438F8E2FE08E2FFED7E
:100FA00025E02448F8EEF208EFF2ED25E02493F571
:100FB00082E43401F583E0C313FEA3E013FFED25C3
:100FC000E02439F9D3E39F19E39E5047ED25E0244F
:100FD00093F582E43401F583E0FEA3E0FFED75F0C4
:100FE00008A42438F8A60608A607ED25E02493F502
:100FF00082E43401F583A3E025E0FF0582D5820277
:1010000015831582E033F8ED25E02448C8F208EF97
:10101000F2803CED25E0245AF582E43429F583E49E
:1010200093FE740193FFED25E02439F9D3E39F1972
:10103000E39E401BED25E02448F9E3C313FE09E3DA
:1010400013FFED75F008A42438F8A60608A6070DCE
:10105000ED64026003020F6BE4FDED75F008A4245B
:1010600038F8E6FE08E6FFED25E02454F8EEF20835
:10107000EFF20DEDB402E322900193EFF0E4A3F060
:10108000900194E0FFC3940240030211DBEF25E0DE
:1010900025E02432F582E43401F58312026FEC4D31
:1010A0004E4F70030211BB900194E0FF25E025E054
:1010B0002412F582E43401F583120287EF25E0253E
:1010C000E02432F582E43401F58312026FD3120278
:1010D0002C40037F0222900194E0FF25E025E024CC
:1010E00012F582E43401F583120287EF25E025E052
:1010F0002432F582E43401F58312026F120101906B
:1011000001951202A0E47FFF7EFFFDFC9001951285
:101110000287C312022C40037F0222900193E070E9
:101120004B7F03FEFDFC90019512028712010F9088
:101130000194E025E025E02408F81202931200F45F
:10114000780212023D900194E0FB25E025E024089E
:10115000F81202ACEB25E025E02408F812027BEB44
:1011600025E02400F8EEF208EFF28076900193E09B
:1011700064017041A3E025E025E02408F812027B19
:101180009001951202871200F4780112023D90013D
:1011900094E0FB25E025E02408F81202ACEB25E002
:1011A00025E02408F812027BEB25E02400F8EEF29B
:1011B00008EFF2802D90019512026F900194E025C6
:1011C000E02400F8EEF208EFF28017900194E0FFBF
:1011D000C39402500AEF25E02420F8E4F208F27FDD
:1011E0000222900194E004F00210707F0622E49045
:1011F0000192F0900192E0FE75F008A4243AFFEE0F
:1012000025E02438F8E2FC08E2FD122E2F9001922E
:10121000E0FE75F008A4243CFFEE25E02420F8E26F
:10122000FC08E2FD122E2F900192E0FE75F008A45A
:10123000243EFBC003EE25E02400F8E2FE08E2FFB6
:10124000E4FCFDE025E025E02412F582E43401F51C
:10125000831202871200F4780412023DAD07AC0637
:10126000D007122E2F900192E004F0E0C3940240C8
:10127000827F52C0079000C912026FAD07AC06D042
:1012800007122E2F7F4A7804E2FC08E2FD122E2F6F
:101290007F4EC0079000A212026FAD07AC06D007C8
:1012A000122E2F7F567806E2FC08E2FD122E2F7FC9
:1012B00058902940E493FC740193FD122E2F7F5A1D
:1012C00090294074019324ECFDE49334FFFC122E2A
:1012D0002F7F5C7D287C00122E2F7F5E783EE2FC03
:1012E00008E2FD122E2F7F607826E2FC08E2FD1254
:1012F0002E2F7F62C00790009E12026F78031202A9
:101300003DAD07AC06D007122E2F7F64781EE2FC9D
:1013100008E2FD122E2F7F66E4FDFC122E2F782BA3
:10132000E6F52222900193EFF0E4A3F0900194E01F
:10133000FF25E02418F8E2FC08E2FDEF25E0240098
:10134000F8E2FE08E2FFD39DEE9C401BE025E0247E
:1013500018F8E2FC08E2FDC3EF9DFFEE9CFEE4FC02
:10136000FDA31202A0800A9001951202B8000000AD
:1013700000900193E0704E90019512026F78071271
:1013800002509001951202A09000DFE06003021469
:101390002A7F03FEFDFC90019512028712010F9037
:1013A0000194E025E025E02428F81202931200F4CD
:1013B000780212023D900194E025E025E02428F80F
:1013C0001202AC8075900193E06401705990019510
:1013D00012026F78071202509001951202A090013C
:1013E00094E025E025E02428F812027B9001951274
:1013F00002871200F4780112023D900194E0FB256F
:10140000E025E02428F81202ACEB25E025E02428B2
:10141000F812027B780712023DEB25E02420F8EE5B
:10142000F208EFF2801490019512026F900194E09F
:1014300025E02420F8EEF208EFF2900194E004F0A9
:10144000E06402600302131C7F0622439F04E453FE
:10145000C6DFE5C600B5C6F375830075820775FD66
:101460000DE4E5FEF4FF75830075820675FD0DE45D
:10147000E5FEB50704F59E8003759E007810000018
:10148000D8FC53C6E043C60843C6807596077597D7
:101490000575830075820475FD0DE5FD0404F58F67
:1014A00075830075820375FD0DE4E5FEF4FF758319
:1014B0000075820275FD0DE4E5FEB50704F5958023
:1014C0000375958375BE0E5392FE9001007F007EDA
:1014D00002E4F0A3DFFCDEFA78007F00E4F208DF2C
:1014E000FC78FFE4F6D8FD75818002151B02000030
:1014F000021666E493A3F8E493A34003F68001F296
:1015000008DFF48029E493A3F85407240CC8C333FC
:10151000C4540F4420C8834004F456800146F6DFCB
:10152000E4800B01020408102040809028E8E47E4B
:10153000019360BCA3FF543F30E509541FFEE493C0
:10154000A360010ECF54C025E060A840B8E493A387
:10155000FAE493A3F8E493A3C8C582C8CAC583CAB2
:10156000F0A3C8C582C8CAC583CADFE9DEE780BE6A
:10157000900194EEF0A3EFF0E4A3F09000EEE070A1
:1015800002A3E0702C9001B1E070169000E7E0B487
:10159000010FD39000F3E094009000F2E09400403B
:1015A00010E47896F208F278841202E90000000054
:1015B000227806E2FE08E2FFE4FCFD9001971202A9
:1015C000A0788412027B9001971202871200F478AF
:1015D000841202AC7897E22401F218E23400F2900F
:1015E0000194E0FEA3E0FFC308E29F18E29E5003CF
:1015F000021665E2FE08E2FFE4FCFDC004C005C07F
:1016000006C007788412027BD003D002D001D0003C
:1016100012019A90019B1202A090019B12026F90FE
:10162000019FEEF0A3EFF0781EE2FC08E2FDD39FED
:10163000EC9E401790019FE0FEA3E0FFE4FCFD90CC
:101640000197120287D312022C500E90019FE0FFE7
:10165000A3E0781ECFF208EFF290019B12026F78A0
:101660001EEEF208EFF2E47896F208F278841202A5
:10167000E90000000022122D95122EF0122F2312E5
:10168000208B122CD3122AAD122B1B122D37D2AF66
:10169000751D01E51D24FE605824FE60771470035B
:1016A00002172A1470030217372405600302174B30
:1016B0007F061229BC122F13120003122E03900171
:1016C0009C7401F07F207E4E7D007C00121BAE904A
:1016D000019C7401F07F207E4E7D007C00121ADA9E
:1016E00090019C7401F07F207E4E7D007C00121AD8
:1016F00006D2D81224E7900105E070FA9001081292
:10170000026F9001941202A0E4FD7F01122C8C75EF
:101710001D04804AD2D8900105E070FA121E001212
:1017200022D790010812026F9001941202A0E4FDEA
:101730007F01122C8C751D05802412255C8F1D12D3
:1017400011DE12235E801730000312192B300103C3
:10175000121FF3122C13751D048003751D01122F27
:10176000301209C602168322900193EFF0781EE230
:10177000FE08E2FF7806E2FC08E2FDD39FEC9E4003
:1017800016781EE2FE08E2FFED9FFFEC9EFEE4FCF1
:10179000FDA31202A0800A9001941202B80000007A
:1017A00000900193E0704BA312026F780712025071
:1017B0009001941202A0E47F03FEFDFC90019412BC
:1017C000028712010F78341202931200F478021289
:1017D000023D78341202AC783412027B7807120290
:1017E0003D9000BAEEF0A3EFF07826EEF208EFF2AB
:1017F000805F900193E064017042A312026F78074A
:101800001202509001941202A090019412026F787B
:10181000341202931200F4780112023D783412025D
:10182000AC783412027B780712023D9000BAEEF0D9
:10183000A3EFF07826EEF208EFF2801590019412F3
:10184000026F9000BAEEF0A3EFF07826EEF208EF08
:10185000F27F062278841202E900000000E4789604
:10186000F208F290011612026F9001121202871212
:1018700000F4E47B05FAF9F812010FEF2420FFEEE3
:1018800034BFFEED3402FDE43CFC90011E1202A0C8
:101890007806744EF2087420F278141202E90000FF
:1018A0004E20781E744EF2087420F2E47826F20876
:1018B000F278341202E9000000009000981202B899
:1018C00000000000E490009CF0A3F0A31202B80016
:1018D0000000009000A21202B8000000009000AAD0
:1018E0001202B800000000E49000AEF0A3F09000F7
:1018F000B8744EF0A37420F0E49000DDF09000C0C6
:101900001202B80000000090019C7401F07F207E5C
:101910004E7D007C00121BAE90019C7401F07F2074
:101920007E4E7D007C00121ADA90019C7401F07FDB
:10193000207E4E7D007C00121A062212000A12231D
:10194000E3121F54122AE49000E1EFF0122BB5EFDE
:101950007003021A057F011229FDAD07AC06D39072
:1019600000EFE094009000EEE094004010ECC4F82A
:1019700054F0C868FCEDC4540F48FD802E30181197
:10198000EDAE047803CEC313CE13D8F9FDAC0680B8
:101990001AC37851E2941E18E29400500EECC4F879
:1019A00054F0C868FCEDC4540F48FDAE04AF0512F6
:1019B00003569000DFE0602A7F051229FDD39000D6
:1019C000EDE09F9000ECE09E400CE49000E1F09090
:1019D00000DFF01225D09000ECE475F0011200DE7B
:1019E0008007E49000ECF0A3F09000DFE0FF9000AF
:1019F000DEE06F60201222489000DFE09000DEF011
:101A00009000E0E054F0600D7F061229FD9000F098
:101A1000EEF0A3EFF0229001981202A090019CE05A
:101A2000B401259001521202B800004E20900152DC
:101A300012026F78031202509001521202A090011C
:101A4000561202B800004E2030013C200039E47FDD
:101A500002FEFDFC90015612028712010FC004C065
:101A600005C006C007E47F06FEFDFC900198120247
:101A70008712010FD003D002D001D0001200F490E1
:101A8000019D1202A08044E47F03FEFDFC90015200
:101A900012028712010F90019D1202A090019D1267
:101AA000026F780212023D90019D1202A0900198EF
:101AB00012026F9001561202871200F490019D12DB
:101AC00002871200F490019D1202A090019D120263
:101AD0006F9001521202A090019812026F9001566D
:101AE0001202A090015212026F229001981202A0DD
:101AF00090019CE0B4012590015A1202B800004EFA
:101B00002090015A12026F780312025090015A126B
:101B100002A090015E1202B800004E2030013C206D
:101B20000039E47F02FEFDFC90015E120287120183
:101B30000FC004C005C006C007E47F06FEFDFC9090
:101B4000019812028712010FD003D002D001D000F9
:101B50001200F490019D1202A08044E47F03FEFD78
:101B6000FC90015A12028712010F90019D1202A0EF
:101B700090019D12026F780212023D90019D1202A7
:101B8000A090019812026F90015E1202871200F479
:101B900090019D1202871200F490019D1202A09004
:101BA000019D12026F90015A1202A0900198120238
:101BB0006F90015E1202A090015A12026F229001F2
:101BC000981202A090019CE0B401259001621202DB
:101BD000B800004E2090016212026F78031202508A
:101BE0009001621202A09001661202B800004E201D
:101BF00030013C200039E47F02FEFDFC90016612BA
:101C0000028712010FC004C005C006C007E47F06AA
:101C1000FEFDFC90019812028712010FD003D00242
:101C2000D001D0001200F490019D1202A08044E483
:101C30007F03FEFDFC90016212028712010F9001EA
:101C40009D1202A090019D12026F780212023D9037
:101C5000019D1202A090019812026F90016612027B
:101C6000871200F490019D1202871200F490019DEA
:101C70001202A090019D12026F9001621202A090C8
:101C8000019812026F9001661202A0900162120286
:101C90006F22C0E0C0F0C083C082C0D075D008C23F
:101CA000CFD20730CD03021D4030CB3A20CC37785D
:101CB0007CA6CEE6FFC39480402375F003EF901F0F
:101CC000A212030212031E8B258A2689277825E497
:101CD00075F00112030E12005EF5CE8009787CE6E5
:101CE0002524F8E6F5CE30CC24787CE6C3948040F9
:101CF000107825E475F00112030E12005EF5CE8017
:101D00004D787C06E62524F8E6F5CE804120CB3ED2
:101D100085CE1C787CE6FF7024E51CB41009900188
:101D2000B2E0F452808027E51CB420089001B2E0B4
:101D30004280801A7872A61C787C068011EFC394CA
:101D40000A5008787CE62472F8A61C787C06D20536
:101D5000D0D0D082D083D0F0D0E032E4FFFEEE7558
:101D6000F008A42438F8E6FC08E6FDEE25E024415E
:101D7000F9C3E39D19E39C400D7401A80608800295
:101D8000C333D8FC4FFF0EEEB402D3807DEEC39474
:101D9000025077EE75F008A42438F8E6FC08E6FD5A
:101DA000EE25E02441F9C3E39D19E39C401DEE2597
:101DB000E02445F9C3E3940A19E39400400D74014B
:101DC000A806088002C333D8FC4FFFEE75F008A4C4
:101DD0002448F8E6FC08E6FDEE25E02445F9C3E3D7
:101DE0009D19E39C4021EE25E02441F9C3E3940AC8
:101DF00019E394004011EE2402FD7401A805088047
:101E000002C333D8FC4FFF0E80839001ACEFF02269
:101E1000E4F51BF51AF519F518900192F09001926E
:101E2000E0FBC39402504F742E2BF8E6FFE4FCFD58
:101E3000FEEB25E025E02422F582E43401F583124F
:101E4000028712010F8F1B8E1A8D198C18780712BA
:101E5000023D8F1B8E1A8D198C18900192E025E09F
:101E600025E02432F582E43401F5831202A09001CA
:101E700092E004F080A77830E6FFE4FCFDFE9001DC
:101E80002A12028712010F8F1B8E1A8D198C187857
:101E90000712023D8F1B8E1A8D198C1890013A1271
:101EA00002A090013612026F9001321202871200D6
:101EB000F490012E1202A090012E12026F90013EAA
:101EC0001202A022E4900193F0900193E0F9C394F0
:101ED000024003021F53E925E02420F8E2FE08E255
:101EE000FFA3EEF0A3EFF0E4FCFD7B64FAF9F81237
:101EF000010FC006C007900193E025E0245CF8E2E2
:101F0000FE08E2FFFBAA06E4F9F8D007D0061201AA
:101F10009A900193E025E02440F8EEF208EFF2A356
:101F2000E0FEA3E0FFE4FCFD7B64FAF9F812010F88
:101F3000C006C007900193E025E0245CF8E2FE08AB
:101F4000E2FFFBAA06E4F9F8D007D00612019A9046
:101F50000193E025E02438F8EEF208EFF2E004F017
:101F6000021EB922E4900192F0900192E0FF25E078
:101F70002418F8E2FC08E2FDEF25E02401F9C3E3B0
:101F80009D19E39C5052E025E02400F8E2FC08E2B1
:101F9000FDEF25E02419F8C3E29DFF18E29CFEA3A3
:101FA000F0A3EFF0E4FCFD7B64FAF9F812010FC036
:101FB00006C007900192E025E0245CF8E2FE08E20A
:101FC000FFFBAA06E4F9F8D007D00612019A9001A7
:101FD00095EEF0A3EFF0800BE4900193F0A3F0A353
:101FE000F0A3F0D3900196E0940A900195E094005C
:101FF0004002D218900192E004F0E0640260030213
:102000001F5922122CB09000E5EFF0122BE5EF7073
:102010000302208A30000F7F041229FD900192EE06
:10202000F0A3EFF0800D7F021229FD900192EEF0F7
:10203000A3EFF0D39000EFE094009000EEE0940066
:102040004016900192E0FEA3E07802CEC313CE13B7
:10205000D8F9F0EE900192F0900192E0FEA3E0FF3B
:102060001215609000E3E0FF9000E2E06F602B1239
:10207000289D9000E3E09000E2F09000E4E054F04E
:1020800060187F071229FD9000F2EEF0A3EFF090A8
:1020900000F2E0C313F0A3E013F022E4900192F009
:1020A0007828F6FF122E44900192EFF0BFFF0678D9
:1020B0002976078004782976FF782A7611E408F6D5
:1020C000782D76FFFFEF25E0243AF582E43429F5F8
:1020D00083E493FC740193FDEF75F008A42438F8B1
:1020E000A60408A605EF75F008A4243AF8E4F6085B
:1020F000F6EF75F008A4243CF8E4F608F6EF75F066
:1021000008A4243EF8E4F608F60FEFB402B7E4782A
:1021100058F608F608F608F608F608F608F608F67F
:1021200008F608F608F608F608F608F608F6752424
:102130002822FE0000FE0008FE0018FE0020FE001F
:1021400020FE0028FE0038FE0040FE0040FE004851
:1021500001012201012A01013201013A0101AC0110
:1021600001AD0101AE0100E10100E50100DF010068
:10217000E30100DE0100E2FE0028FE00480100EC61
:102180000100E80100EA0100EE0100F60100F8019B
:1021900000F001011201011A0100BA0100FA010068
:1021A000A60100BE01010601010701010801010CA1
:1021B0000101420101460101320101120100A201A7
:1021C00000A601009E00001D7DFF0222427840E62D
:1021D000FE08E6FFC37843E29F18E29E4010785065
:1021E000E6FE08E6FF7847E29F18E29E50647824F6
:1021F000E2FE08E2FF7821E22FFF18E23E90019311
:10220000F0A3EFF07826E2FE08E2FF7823E22FFF4A
:1022100018E23EA3F0A3EFF0E025E0FF900195E087
:1022200033FE900193E0FAA3E0FBC39FEA9E5004C3
:10223000ED54FAFDEB25E0FFEA33FEC3900196E092
:102240009F900195E09E500AED54F5FD8004ED54F9
:10225000F0FD9001ADEDF022900192EFF09000FEC4
:10226000E060030222D6F9FFFE7401A8060880028E
:10227000C333D8FCFD900192E05DFC9000DEE05D90
:102280006C60079000FEE04401F09000DEE05DB578
:102290000513EE2404FC7401A804088002C333D89B
:1022A000FC49F9800D7401A806088002C333D8FCEC
:1022B00049F9900192E05DB5050F7401A806088008
:1022C00002C333D8FC4FFF8011EE2404FD7401A833
:1022D00005088002C333D8FC4FFF0EEE64027089FC
:1022E000E95F9000E0F022E4900192F0A3F0782BF7
:1022F000E6FF30E20630E106C20622C206223007BF
:102300001A9000EAE4F0A374A0F07F0B1229FD906C
:1023100000F6EEF0A3EFF0C20780229000F6E07026
:1023200002A3E070183001159000EAE07004A3E009
:10233000640A60099000EAE4F0A3740AF09000EEE9
:10234000E07002A3E070199000F6E07002A3E07064
:102350000F30050C9000DFE054037004C2068002C9
:10236000D206200608E4FF122B4F122D5722D390DD
:1023700000EFE094009000EEE09400400774FFF559
:10238000F01200DED39000F1E094009000F0E094B1
:1023900000400774FFF5F01200DED39000F9E094DE
:1023A000009000F8E09400401374FFF5F01200DE96
:1023B0009000F8E07002A3E07002D2059000E8E41B
:1023C00075F0011200DED39000F3E094009000F26B
:1023D000E09400400774FFF5F01200DED39000F7A0
:1023E000E094009000F6E09400400774FFF5F012CE
:1023F00000DE227840E2FE08E2FF900192EEF0A3B8
:10240000EFF0A3EEF0A3EFF07F01EF25E02440F81A
:10241000E2FC08E2FDD3900193E09D900192E09CE4
:10242000400FEF25E02440F8E2FD08E2CDF0A3EDF7
:10243000F0EF25E02440F8E2FC08E2FDC3900195AE
:10244000E09D900194E09C500FEF25E02440F8E2DD
:10245000FD08E2CDF0A3EDF00FEFB402AD900192D4
:10246000E0FFA3E07852CFF208EFF2A3E0FFA3E091
:102470007850CFF208EFF222C0E0C0F0C083C082F3
:10248000C0D075D01053B9FD9001A1E4F09001A126
:10249000E0FFC39402503474682FF8E675F003A48B
:1024A00024EBF582E4342DF58312031E12035090C1
:1024B00001A1E025E025E02422F582E43401F58342
:1024C0001202A09001A1E004F080C2786AE675F0E3
:1024D00003A424EBF582E4342DF58312031E1203CA
:1024E0005090012A1202A0900105E4F0D0D0D082D1
:1024F000D083D0F0D0E032782BE6FF30E104D20078
:102500008002C200EF30E204D2018002C201A202C6
:10251000300001B3501412278B3000051207E08001
:10252000031225D0A200920280063008031207E0B1
:10253000A203300101B35014122DB330010512185B
:10254000448003122720A20192038006300903125F
:102550001844782BE630E10A9000EAE4F0A3749B7B
:10256000F0229000EAE4F0A3740AF0229001927441
:1025700006F03000277F01121068900192EFF0BF43
:102580000205D208E0FF227F01121314900192EF9E
:10259000F0BF0205D208E0FF22121EB42001033072
:1025A0000010120038900192EFF0BF0205D208E04F
:1025B000FF22300125120B94900192EFF0BF02052B
:1025C000D209E0FF227F02121758900192EFF0BF6C
:1025D0000205D209E0FF221226B4900192E0FF2208
:1025E000E4FBEB25E025E02432F582E43401F583B9
:1025F00012026FEF24E0FFEE34B1FEED34FFFDEC8C
:1026000034FFFCEB25E025E02412F582E43401F5EB
:10261000831202A0EB25E02400F8744EF208742027
:10262000F2EB25E02420F8E4F208F2EB25E0241890
:10263000F8744EF2087420F20BEBB402A5E4FBEB45
:1026400025E02464F8744EF2087420F20BEBB40A0F
:10265000EE22A907E4FFFCE96025ED6022E4FE74A8
:10266000682EF8E6902931934CFC0EEEB402F07817
:102670006AE6902931934CFC08E6934FFF8035E9D8
:10268000601FE4FE74682EF8E6902931934CFC0E2E
:10269000EEB402F0786AE6902931934CFCE4FF80B6
:1026A00013ED600DE4FC786BE6902931934FFF80C9
:1026B00003E4FCFF900106ECF0A3EFF0900106E0CC
:1026C0004FF5B4227826E2FE08E2FF900193EEF087
:1026D000A3EFF0E4FCFD7B64FAF9F812010FC006E9
:1026E000C0077862E2FE08E2FFFBAA06E4F9F8D030
:1026F00007D00612019A7846EEF208EFF2900193A5
:10270000E0FEA3E0FFE4FCFD7B64FAF9F812010FA0
:10271000C006C0077862E2FE08E2FFFBAA06E4F901
:10272000F8D007D00612019A783EEEF208EFF222B6
:10273000E49000DDF0781E744EF2087420F2E47824
:1027400096F208F278841202E900000000900098E6
:102750001202B8000000009000C01202B800000091
:1027600000E490009CF0A3F090019C04F07F207E98
:102770004E7D007C00121BAE90019C7401F07F2006
:102780007E4E7D007C00121ADA90019C7401F07F6D
:10279000207E4E7D007C00121A0622E4FF9000DFAE
:1027A000F09000DEF09000E6F09000ECF0A3F090E6
:1027B00000F0F0A3F09000E0F0F523EF25E02464B2
:1027C000F8744EF2087420F20FEFB40AEEE4FFEF53
:1027D00025E0245CF8E2FC08E2FD9000FFEC8DF0BF
:1027E0001200DE0FEFB402E79000FFE0FEA3E0FF6F
:1027F0007C007D0A1200899000FFEEF0A3EFF0222A
:10280000C0E0C0F0C083C082C0D075D000C000C09E
:1028100007C28D758C32758AEB900182E475F001E8
:102820001200DEC3900183E09414900182E09400D2
:10283000401D30000D9000E8E0FFA3E0A3CFF0A31F
:10284000EFF09000E8E4F0A3F0900182F0A3F0D064
:1028500007D000D0D0D082D083D0F0D0E032A9070A
:10286000E4FF7E04EEC39404500E74682EF8E690E4
:102870002931934FFF0E80ECE96005EF42D48004CC
:10288000EFF452D4EFF4FE52F4EF42E4ED6005EFC2
:1028900042EC8003EE52ECEFF4FE52DCEB6005EF0D
:1028A00042808003EE52809001B2EFF022AA07909E
:1028B00000FEE0F97041FCFF7E04EA540FFD900039
:1028C000E2E0540F6D6007E944029000FEF09000D2
:1028D000E2E0540F6008EEC454F04CFC8003EC4E70
:1028E000FCEA540F6005EF4EFF8006EEC454F04F33
:1028F000FFEC5F9000E4F022603400DE0000000096
:1029000000000000000000000000000000000000C7
:1029100000000000000000000000000000000000B7
:1029200000000000000000000000000000000000A7
:102930000868010203FFFFFFFFFF047D00000000A5
:102940000001020408102040801900320032003CCF
:102950000078003C003C003C003C003C003C003C5B
:10296000003C003C003C003C003C007800780078D3
:10297000003C003C003C003C003C03E803E8003C19
:10298000003C003C003C003C003CE4FF9000E3E0E5
:10299000701890294093FC740193FDC37847E29D21
:1029A00018E29C40217404FF801C9029407401931C
:1029B00024ECFDE49334FFFCC3783FE29D18E29CD5
:1029C0004004EF4404FF9001B1EFF022782BA607FA
:1029D000EFB40208D202D200C203C201EFB404086D
:1029E000C202C200D203D201EFB40608D202D20062
:1029F000D203D2019000EAE4F0A3749BF07F0A12A4
:102A000029FD9000EEEEF0A3EFF0D20622900194A3
:102A10007401F0A37484F07B017A00EFB40D057F9C
:102A2000017E0022900194E0FCA3E02FF582E43CBB
:102A3000F583E07A00FB9000EAE0FCA3E0FDAF0341
:102A40007E00120077AA06AB0722E4FFFEEE75F0C7
:102A500008A42439F8E624FDFD18E634FFFCEE2531
:102A6000E02439F9C3E39D19E39C400D7401A806E5
:102A7000088002C333D8FC4FFF0EEEB402CF9001A2
:102A8000AEEFF0229000FEE0FF5403602FC205EF8E
:102A900054FCF07F091229FD9000F8EEF0A3EFF04E
:102AA000C29278707600087696787008E6161886D6
:102AB000067001164E60030080EFD292227E017FE5
:102AC00084E4FDED25E0243EF582E43400F583E462
:102AD00093640D601EED25E0243FF582E43400F59B
:102AE00083E493FCEF2DF582E43EF583ECF00DEDED
:102AF000B40ED022120EEB121D4B1221B8122A3A3C
:102B00009000DFE070149001ACE0FF900192F09033
:102B100001ADE05F900192F080089001AEE090017D
:102B200092F0900192E0FF122B832243F80875CDBA
:102B30004053CC7F43CC4043CC2043CC1043CC0407
:102B400053CCFD43CB0243CB0153CBBF43E80853E7
:102B5000E5FC43E30243F50343900343ED0322E422
:102B6000900105F053B9FD43CC02C2D9439F1053E5
:102B70009FFD438760759262C28DEF700675BD0B35
:102B800075BC01122E1A75BE0CD28C43870300004F
:102B9000000022A907E4FDFC74017E00A80408805F
:102BA00005C333CE33CED8F9FFE9FBE4EF5B600D0C
:102BB0007401A804088002C333D8FC4DFD0CECB4AA
:102BC00002D6AF05227E039000DFE06F6007EFF0D2
:102BD000E49000E6F09000DFE070027E01AF069026
:102BE00000E6E004F0C39F50037F00229000E674EB
:102BF00003F07F01227E019000E3E06F6007EFF0B9
:102C0000E49000E7F09000E3E07001FEAF06900072
:102C1000E7E004F0C39F50037F00229000E77401B7
:102C2000F0FF22E4FF9000E0E0FE9000E4E04EFFC1
:102C3000900111E0FE6F6014900110EEF0A3EFF030
:102C4000FE900110E06EFF5EFF7828F6229001985A
:102C50001202A090019812026F781012023D8FB3F9
:102C600090019812026F780812023D8FB29001987D
:102C700012026F8FB12275BF0F000000000000002C
:102C80000000000000000000000000D2D853B9FD91
:102C900043B901E5B930E1FBE4F5BF2212264290C9
:102CA000019412026F122C3D900105E004F075BFF3
:102CB0000F43B92053B9FD43BA0143B901D2D82219
:102CC0009000BCE0FEA3E0FF7826E2FC08E2FD12E3
:102CD0002DD19000BEEEF0A3EFF012297A9001B151
:102CE000E0FF22438901C28DD2A953B8FDE49001CF
:102CF00082F0A3F09000E8F0A3F0758C32758AEBB7
:102D0000D28CD2AF2253BAFEE5B920E0069001057D
:102D1000E06005E5B930E1FBE4F5BF53B9FD53B917
:102D2000FE900105F022E4FFFE74682EF8E690297B
:102D300031934FFF0EEEB404F0EF42D4EF42F4EFC4
:102D400042E4EFF452DC22785C7402F20874BCF2C4
:102D5000087402F208748AF208E4F2087464F20853
:102D6000E4F2087464F222E4FF75BE0E439F100F74
:102D7000EFB4FFFB439F0275BC02759276E4F5BF8A
:102D8000D2D953CCFD22EF600543D504800353D53F
:102D9000FB53F5FB53E5FB43E30443ED04E49000F0
:102DA000FEF0D29222E4F5E3439F10439F02FF0F0F
:102DB000EFB4FFFB539FEF75BE0EE4F5BFF5B97599
:102DC000927622E49000E3F09000E2F09000E7F0C9
:102DD0009000F2F0A3F09000E4F09000BEF0A3F0B9
:102DE00022AB07AA06D3EB9DEA9C4007EB9DFFEAC6
:102DF0009CFE22C3ED9BFFEC9AFE22FF2E58FF2E75
:102E00006BFF2E7EFF2E91FF2EA4FF2EB7FF2ECA42
:102E1000FF2EDDE49000F8F0A3F07F0B1229FD9067
:102E200000F6EEF0A3EFF0D20522438901C28CC276
:102E30008FE4900182F0A3F0758CFB758AED22ABD4
:102E400007ECFFAE05C2AFA803F6AF06E804F8A68C
:102E500007D2AF22E4FFF582F5837440FEE493F4D9
:102E60002FFFA3EEB583F62253B9EF787EA6B708FD
:102E7000A6B608A6B5787D1202632253B9EF787E14
:102E8000A6EB08A6EA08A6E9787D1202632253B9E8
:102E9000EF787EA6F308A6F208A6F1787D12026309
:102EA0002253B9EF787EA6FB08A6FA08A6F9787D2A
:102EB0001202632243B910787EA6B708A6B608A608
:102EC000B5787D1202632243B910787EA6EB08A67E
:102ED000EA08A6E9787D1202632243B910787EA63B
:102EE000F308A6F208A6F1787D1202632243B91016
:102EF000787EA6FB08A6FA08A6F9787D120263225E
:102F0000122D167B017D01E4FF12284E7F01122D48
:102F10007622EFF452D452F4EF42E4EF42ECEFF4B5
:102F200052DC2212000E12059D120D5E1207E012F5
:102F3000278B22C2DA53D80F43D8D0D2D8D2D92285
:102F4000122A7422FFFFFFFFFFFFFFFFFFFFFFFFBB
:102F5000FFFFFFFFFFFFFFFFFFFFFFFFFFFFFFFF81
:102F6000FFFFFFFFFFFFFFFFFFFFFFFFFFFFFFFF71
:00000001FF
